:1000000002308A009F2A0000B630F700FA01F90199
:10001000F801380839043A043B04031D1128F7019C
:100020001E280310F81B1D28B80DB90DBA0DBB0D05
:10003000FA0DF90DF80DF70B1128F81308003C081C
:1000400003198F28C400400803198F28C407031818
:1000500030287F30C402031C8F2803198F283428CE
:100060008130C40703188F284408F700F801F9010C
:10007000FA013D08C800C8173E08C7003F08C6007F
:100080001830C400C501461C5D284308FA07031C4C
:100090004F28F90A031D4F28F80A0319C51742080B
:1000A000F907031C5628F80A0319C5174108BE00B2
:1000B000BE173E08F8070318C517C50DF80CF90C54
:1000C000FA0CC80CC70CC60C0310C40B4228013034
:1000D000F70703188F28F81B7428C80DFA0DF90DBF
:1000E000F80DF70303198F28C81F8528FA0A031D86
:1000F0008528F90A031D8528F80A031D8528F80CB0
:10010000F90CFA0CF70A03198F283D08C5004108BD
:10011000C506C51F8D28F8179328F8139328F701F3
:10012000F801F901FA01080080308318BD06C20108
:10013000C3013908C1003D08C106380803198429E4
:10014000C000F7003C0803198D29C00203192929B2
:10015000031CE7283D08C600C6173E08C5003F0837
:10016000C400C3010310C60CC50CC40CC30CC00BE7
:10017000B128C11FBE284214A129421040104216C6
:100180003B3084008313B6294212C11BD128401C86
:10019000DC28C60CC50CC40CC30CF70A03199C2937
:1001A000DC28C61BDF280310C30DC40DC50DC60D0A
:1001B000F70303199C29D12842174929421339080A
:1001C000C100C11FE528C6179529C61395293C080B
:1001D000C000F7003808C0023908C600C6173A0840
:1001E000C5003B08C400C3010310C60CC50CC40CF9
:1001F000C30CC00BF328C11F0029C214A129C210CF
:100200004010C2163F3084008313B629C212C11BAE
:100210001329401C1E29C60CC50CC40CC30CF70ABC
:1002200003199C291E29C61B21290310C30DC40DC7
:10023000C50DC60DF70303199C291329C2174929B7
:10024000C2133D08C100C11F2729C6179529C6132F
:1002500095293D08C600C6173E08C5003F08C400E2
:10026000C11F3629C6134215A1294211C3014010EE
:100270003B3084008313B629C11B5F293908C100B4
:10028000401C4929C60CC50CC40CC30CF70A031941
:100290009C29C31F5A29C40A031D5A29C50A031DD4
:1002A0005A29C60A031D5A29C60CC50CC40CF70AE4
:1002B00003199C29421BDE28C21B20297E2980307D
:1002C000C606C61F6729A1293D08C100742939083F
:1002D000C100C608031D7429C508031D7429C4087C
:1002E000031D7429F7019529C61B7E290310C30D30
:1002F000C40DC50DC60DF70B74299C29C11F822999
:10030000C6179529C61395293C08F7003D08C60075
:100310003E08C5003F08C40095293808F700390891
:10032000C6003A08C5003B08C4004608F800450866
:10033000F9004408FA00D429F701F801F901FA019B
:10034000D429C301C409C509C609C309C30A031DC9
:10035000AF29C40A031DAF29C50A0319C60A4218EA
:10036000BD28C218FF284219352964290008C4078E
:10037000031CC029C50A031DC029C60A031940145D
:1003800084030008C507031CC829C60A03194014C2
:1003900084030008801F803AC60703184014421ADD
:1003A000C428C21A06293C2908003C0803199A2AC5
:1003B000C800400803199A2AC802031CE4297F30A8
:1003C000C80703189A2AEA298130C802031C9A2A0E
:1003D00003199A2A4808F700F801F901FA01C70140
:1003E0003D08C600C6173E08C5003F08C4001930C6
:1003F000C8004308C40203180D2A0130C5020318BF
:100400000D2AC60203180D2AC70203180D2AC70AAF
:10041000C60AC50A4308C4073F2A4208C502031892
:10042000282A0130C6020318282AC7020318282ADE
:10043000C70AC60A4208C5074308C407031C3F2A67
:10044000C50A031D3F2AC60A031D3F2AC70A3F2AC1
:1004500041088038C60203183E2A0130C70203183B
:100460003E2AC70A41088038C6074208C507031C50
:100470001C2AC60A031D1C2AC70A1C2A7A14C80B88
:10048000422A4D2A0310C40DC50DC60DC70D031019
:10049000FA0DF90DF80DC90DF929491C552A03105B
:1004A000F80CF90CFA0CC90C582AF70303199A2A0C
:1004B000C91B812A0310C40DC50DC60DC70D430805
:1004C000C40203186D2A0130C50203186D2AC60242
:1004D00003186D2AC702031C902A4208C50203189C
:1004E000782A0130C6020318782AC702031C902A12
:1004F00041088038C6020318812A0130C702031C54
:10050000902AFA0A031D902AF90A031D902AF80A74
:10051000031D902AF70A03199A2AF80CF90CFA0C11
:100520003D08C8004108C806C81F982AF8179E2A27
:10053000F8139E2AF701F801F901FA0108000308EF
:100540001F39830083161F149F141F159F11073036
:100550009C008313CD308312B700CC30B6004C30F2
:10056000B5007C30B4008316811383128B15C03024
:100570008B0483160113B53083129000061AD12A1A
:100580000F08FA000E08F7000F087A02031DC02AB0
:100590007708A0007A08A100A201A3018E018F01B3
:1005A0008E01861AE42A0F08FA000E08F7000F08D9
:1005B0007A02031DD32A7708A4007A08A500A601B1
:1005C000A7018E018F018E01A408031D5B2BA508D6
:1005D000031D5B2BA608031D5B2BA708031D5B2BCC
:1005E0002708BB002608BA002508B9002408B8006F
:1005F00004203330BF00D330BE002C30BD00873024
:10060000BC007A08C3007908C2007808C1007708E6
:10061000C0001F207A08BB007908BA007808B9002A
:100620007708B8007A08BF007908BE007808BD00D6
:100630007708BC009530C300BF30C2005630C100FF
:100640006B30C0001F207A08AB007908AA00780838
:10065000A9007708A80083143708BB003608BA0041
:100660003508B9003408B8002B08BF002A08BE00BE
:100670002908BD002808BC0094207A08BB0079082E
:10068000BA007808B9007708B8007A08BF0079087E
:10069000BE007808BD007708BC00C301C201C101DB
:1006A0008030C000D5217A08B3007908B2007808FC
:1006B000B1007708B000A008031DD22BA108031DCC
:1006C000D22BA208031DD22BA308031DD22B230873
:1006D000BB002208BA002108B9002008B800042095
:1006E0003330BF00D330BE002C30BD008730BC009B
:1006F0007A08C3007908C2007808C1007708C000F2
:100700001F207A08BB007908BA007808B90077087A
:10071000B8007A08BF007908BE007808BD007708E5
:10072000BC009530C300BF30C2005630C1006B30F2
:10073000C0001F207A08AF007908AE007808AD002D
:100740007708AC0083143708BB003608BA003508B8
:10075000B9003408B8002F08BF002E08BE002D08CD
:10076000BD002C08BC0094207A08BB007908BA00B0
:100770007808B9007708B8007A08BF007908BE0089
:100780007808BD007708BC00C301C201C1018030F8
:10079000C000D5217A08B3007908B2007808B1000A
:0807A0007708B000BE2A6300D7
:02400E00723FFF
:00000001FF
;PIC16F877A
;CRC=9354  CREATED="01-abr.-20 18:24"
